:020000040800F2
:10000000002800203D0C0008E10B0008E70B000869
:10001000ED0B0008F30B0008F90B000800000000CE
:10002000000000000000000000000000FF0B0008BE
:100030000B0C000800000000170C0008230C00083F
:10004000850C0008850C0008850C0008850C00084C
:10005000850C0008850C0008850C0008850C00083C
:10006000850C0008850C0008850C0008850C00082C
:10007000850C0008850C0008850C0008850C00081C
:10008000850C0008850C0008850C0008850C00080C
:10009000850C0008850C0008850C0008850C0008FC
:1000A000850C0008850C0008850C0008850C0008EC
:1000B000850C0008850C000800000000850C000875
:1000C000850C00080000000000000000850C0008FE
:1000D00000000000850C0008850C000800000000EE
:1000E000850C0008850C0008850C00080000000045
:1000F0000000000000000000000000000000000000
:0C01000000000000000000005FF808F1A3
:10010C0010B5054C237833B9044B13B10448AFF345
:10011C0000800123237010BD0C00002000000000A3
:10012C00481A000808B5034B1BB103490348AFF349
:10013C00008008BD0000000010000020481A0008D4
:10014C0080B500AF01220121114801F057F80122BE
:10015C0002210F4801F052F8012204210C4801F051
:10016C004DF8012208210A4801F048F8012210211B
:10017C00074801F043F801222021054801F03EF820
:10018C0001224021024801F039F800BF80BD00BFB8
:10019C00000C014080B500AF01228021144801F011
:1001AC002DF801224FF48071114801F027F801223B
:1001BC004FF400710E4801F021F801224FF48061D8
:1001CC000B4801F01BF801224FF40061084801F0C4
:1001DC0015F801224FF48051054801F00FF8012267
:1001EC004FF40051024801F009F800BF80BD00BF78
:1001FC00000C014080B582B000AF7860FFF7A0FF23
:10020C007B68092B00F2808101A252F823F000BF19
:10021C00450200088D020008D50200081D030008E5
:10022C0065030008AD030008F50300083D04000851
:10023C0085040008CD04000800220121B44800F018
:10024C00DDFF00220221B24800F0D8FF0022042179
:10025C00AF4800F0D3FF00220821AD4800F0CEFFDC
:10026C0000221021AA4800F0C9FF00222021A84832
:10027C0000F0C4FF01224021A54800F0BFFF43E17C
:10028C0001220121A24800F0B9FF00220221A0485E
:10029C0000F0B4FF002204219D4800F0AFFF0122C2
:1002AC0008219B4800F0AAFF01221021984800F079
:1002BC00A5FF01222021964800F0A0FF0122402139
:1002CC00934800F09BFF1FE100220121904800F0B1
:1002DC0095FF002202218E4800F090FF012204219C
:1002EC008B4800F08BFF00220821894800F086FF24
:1002FC0000221021864800F081FF01222021844831
:10030C0000F07CFF00224021814800F077FFFBE0E9
:10031C00002201217E4800F071FF002202217C485E
:10032C0000F06CFF00220421794800F067FF0022E6
:10033C000821774800F062FF01221021744800F078
:10034C005DFF01222021724800F058FF002240215D
:10035C006F4800F053FFD7E0012201216C4800F0F8
:10036C004DFF002202216A4800F048FF00220421C0
:10037C00674800F043FF01220821654800F03EFF6A
:10038C0001221021624800F039FF00222021604830
:10039C0000F034FF002240215D4800F02FFFB3E055
:1003AC00002201215A4800F029FF0122022158485D
:1003BC0000F024FF00220421554800F01FFF00220A
:1003CC000821534800F01AFF01221021504800F078
:1003DC0015FF002220214E4800F010FF0022402182
:1003EC004B4800F00BFF8FE000220121484800F041
:1003FC0005FF01220221464800F000FF00220421E3
:10040C00434800F0FBFE00220821414800F0F6FEB4
:10041C00002210213E4800F0F1FE002220213C4831
:10042C0000F0ECFE00224021394800F0E7FE6BE0C2
:10043C0000220121364800F0E1FE0022022134485E
:10044C0000F0DCFE00220421314800F0D7FE01222E
:10045C0008212F4800F0D2FE012210212C4800F078
:10046C00CDFE012220212A4800F0C8FE01224021A5
:10047C00274800F0C3FE47E000220121244800F089
:10048C00BDFE00220221224800F0B8FE0022042109
:10049C001F4800F0B3FE002208211D4800F0AEFEFC
:1004AC00002210211A4800F0A9FE00222021184831
:1004BC0000F0A4FE00224021154800F09FFE23E02E
:1004CC0000220121124800F099FE0022022110485E
:1004DC0000F094FE002204210D4800F08FFE002253
:1004EC0008210B4800F08AFE01221021084800F078
:1004FC0085FE00222021064800F080FE00224021CB
:10050C00034800F07BFE00BF00BF0837BD4680BD2E
:10051C00000C014080B582B000AF7860FFF73AFE66
:10052C007B68092B00F2BC8101A252F823F000BFBA
:10053C0065050008B90500080D06000861060008ED
:10054C00B5060008090700085D070008B107000898
:10055C00050800085908000800228021D24800F044
:10056C004DFE00224FF48071CF4800F047FE002270
:10057C004FF40071CC4800F041FE00224FF4806132
:10058C00C94800F03BFE00224FF40061C64800F061
:10059C0035FE00224FF48051C34800F02FFE01229B
:1005AC004FF40051C04800F029FE79E1012280216E
:1005BC00BD4800F023FE00224FF48071BA4800F0D1
:1005CC001DFE00224FF40071B74800F017FE012207
:1005DC004FF48061B44800F011FE01224FF4006129
:1005EC00B14800F00BFE01224FF48051AE4800F0F0
:1005FC0005FE01224FF40051AB4800F0FFFD4FE126
:10060C0000228021A84800F0F9FD00224FF48071EF
:10061C00A54800F0F3FD01224FF40071A24800F050
:10062C00EDFD00224FF480619F4800F0E7FD0022B1
:10063C004FF400619C4800F0E1FD01224FF4805121
:10064C00994800F0DBFD00224FF40051964800F071
:10065C00D5FD25E100228021934800F0CFFD00223A
:10066C004FF48071904800F0C9FD00224FF40071E6
:10067C008D4800F0C3FD00224FF480618A4800F0E1
:10068C00BDFD01224FF40061874800F0B7FD012247
:10069C004FF48051844800F0B1FD00224FF400511A
:1006AC00814800F0ABFDFBE0012280217E4800F088
:1006BC00A5FD00224FF480717B4800F09FFD0022C5
:1006CC004FF40071784800F099FD01224FF48061DD
:1006DC00754800F093FD01224FF40061724800F060
:1006EC008DFD00224FF480516F4800F087FD0022F1
:1006FC004FF400516C4800F081FDD1E000228021C4
:10070C00694800F07BFD01224FF48071664800F0CF
:10071C0075FD00224FF40071634800F06FFD00225C
:10072C004FF48061604800F069FD01224FF40061D4
:10073C005D4800F063FD00224FF480515A4800F0F0
:10074C005DFD00224FF40051574800F057FDA7E023
:10075C0000228021544800F051FD01224FF4807199
:10076C00514800F04BFD00224FF400714E4800F050
:10077C0045FD00224FF480614B4800F03FFD002204
:10078C004FF40061484800F039FD00224FF48051CD
:10079C00454800F033FD00224FF40051424800F070
:1007AC002DFD7DE0002280213F4800F027FD002236
:1007BC004FF480713C4800F021FD00224FF4007191
:1007CC00394800F01BFD01224FF48061364800F0DF
:1007DC0015FD01224FF40061334800F00FFD01229A
:1007EC004FF48051304800F009FD01224FF40051C4
:1007FC002D4800F003FD53E0002280212A4800F030
:10080C00FDFC00224FF48071274800F0F7FC002219
:10081C004FF40071244800F0F1FC00224FF4806189
:10082C00214800F0EBFC00224FF400611E4800F060
:10083C00E5FC00224FF480511B4800F0DFFC002245
:10084C004FF40051184800F0D9FC29E00022802117
:10085C00154800F0D3FC00224FF48071124800F0D0
:10086C00CDFC00224FF400710F4800F0C7FC0022B1
:10087C004FF480610C4800F0C1FC01224FF4006180
:10088C00094800F0BBFC00224FF48051064800F0F0
:10089C00B5FC00224FF40051034800F0AFFC00BF40
:1008AC0000BF0837BD4680BD000C014080B582B04A
:1008BC0000AF00F0E3F900F0C5F800F0FFF80023FA
:1008CC007B607B680B2B01DD00237B607B68042B3A
:1008DC002ADC7B68C3F104031846FFF78BFC7B68AA
:1008EC00C3F106031846FFF715FE012208215448F0
:1008FC0000F084FC01221021514800F07FFC012201
:10090C0004214F4800F07AFC012280214C4800F071
:10091C0075FC002220214A4800F070FC0022402186
:10092C00474800F06BFCCCE77B68052B2ADC7B6826
:10093C00C3F105031846FFF75DFC7B68C3F10603A2
:10094C001846FFF7E7FD012204213D4800F056FC54
:10095C00012280213A4800F051FC01222021384824
:10096C0000F04CFC01220821354800F047FC002225
:10097C001021334800F042FC00224021304800F0A6
:10098C003DFC9EE77B68092B2ADC7B68C3F10B03DB
:10099C001846FFF72FFC7B68C3F109031846FFF7D5
:1009AC00B9FD01221021264800F028FC012220214B
:1009BC00234800F023FC01224021214800F01EFCBA
:1009CC00012280211E4800F019FC002208211C483D
:1009DC0000F014FC00220421194800F00FFC70E711
:1009EC007B680B2B3FF76DAF7B68C3F10B0318468D
:1009FC00FFF700FC7B68C3F10B031846FFF78AFD79
:100A0C00012210210E4800F0F9FB012220210C4894
:100A1C0000F0F4FB01220421094800F0EFFB012255
:100A2C004021074800F0EAFB00220821044800F0AE
:100A3C00E5FB00228021024800F0E0FB41E700BF0B
:100A4C000008014080B590B000AF07F118032822D0
:100A5C000021184600F0EAFF3B1D00221A605A6084
:100A6C009A60DA601A610223BB610123BB62102316
:100A7C00FB6200237B6307F11803184600F0D6FBDA
:100A8C000346002B01D000F06DF80F237B60002390
:100A9C00BB600023FB6000233B6100237B613B1D9B
:100AAC000021184600F042FE0346002B01D000F056
:100ABC0059F800BF4037BD4680BD000080B586B0F8
:100ACC0000AF07F1080300221A605A609A60DA60DE
:100ADC00214B9B69204A43F0040393611E4B9B6995
:100AEC0003F004037B607B681B4B9B691A4A43F041
:100AFC0008039361184B9B6903F008033B603B6848
:100B0C000022FC21154800F079FB002243F6FF710E
:100B1C00134800F073FBFC23BB600123FB60002334
:100B2C003B6102237B6107F1080319460B4800F077
:100B3C00EBF943F6FF73BB600123FB6000233B61C1
:100B4C0002237B6107F108031946054800F0DCF924
:100B5C0000BF1837BD4680BD0010024000080140A0
:100B6C00000C014080B400AF72B600BFFEE700007D
:100B7C0080B485B000AF154B9B69144A43F0010358
:100B8C009361124B9B6903F00103BB60BB680F4B75
:100B9C00DB690E4A43F08053D3610C4BDB6903F0E5
:100BAC0080537B607B680A4B5B68FB60FB6823F0BF
:100BBC00E063FB60FB6843F08063FB60044AFB6806
:100BCC00536000BF1437BD4680BC70470010024014
:100BDC000000014080B400AFFEE780B400AFFEE738
:100BEC0080B400AFFEE780B400AFFEE780B400AF86
:100BFC00FEE780B400AF00BFBD4680BC704780B438
:100C0C0000AF00BFBD4680BC704780B400AF00BFD2
:100C1C00BD4680BC704780B500AF00F075F800BFD2
:100C2C0080BD80B400AF00BFBD4680BC70470000E3
:100C3C00FFF7F7FF0B480C490C4A002302E0D4588D
:100C4C00C4500433C4188C42F9D3094A094C00230C
:100C5C0001E013600432A242FBD300F0C3FEFFF7A5
:100C6C0025FE7047000000200C0000208C1A0008A4
:100C7C000C0000202C000020FEE7000080B500AF27
:100C8C00084B1B68074A43F010031360032000F065
:100C9C0007F90F2000F008F8FFF76AFF0023184649
:100CAC0080BD00BF0020024080B582B000AF7860EC
:100CBC00124B1A68124B1B7819464FF47A73B3FB1C
:100CCC00F1F3B2FBF3F3184600F011F90346002BD5
:100CDC0001D001230EE07B680F2B0AD80022796823
:100CEC004FF0FF3000F0E7F8064A7B6813600023F2
:100CFC0000E0012318460837BD4680BD00000020E7
:100D0C00080000200400002080B400AF054B1B78C5
:100D1C001A46054B1B681344034A136000BFBD46BB
:100D2C0080BC7047080000202800002080B400AF71
:100D3C00024B1B681846BD4680BC7047280000203B
:100D4C0080B485B000AF78607B6803F00703FB606C
:100D5C000C4BDB68BB60BA684FF6FF031340BB60FB
:100D6C00FB681A02BB68134343F0BF6343F40033C0
:100D7C00BB60044ABB68D36000BF1437BD4680BC5F
:100D8C00704700BF00ED00E080B400AF044BDB689F
:100D9C001B0A03F007031846BD4680BC704700BF12
:100DAC0000ED00E080B483B000AF03463960FB7106
:100DBC0097F90730002B0ADB3B68DAB20C4997F93C
:100DCC0007301201D2B20B4483F800230AE03B68CF
:100DDC00DAB20849FB7903F00F03043B1201D2B2DB
:100DEC000B441A7600BF0C37BD4680BC704700BF61
:100DFC0000E100E000ED00E080B489B000AFF860E5
:100E0C00B9607A60FB6803F00703FB61FB69C3F10F
:100E1C000703042B28BF0423BB61FB690433062B97
:100E2C0002D9FB69033B00E000237B614FF0FF32EA
:100E3C00BB6902FA03F3DA43BB681A407B699A4038
:100E4C004FF0FF317B6901FA03F3D9437B680B4008
:100E5C00134318462437BD4680BC704780B582B01A
:100E6C0000AF78607B68013BB3F1807F01D3012335
:100E7C000FE00A4A7B68013B53600F214FF0FF30B3
:100E8C00FFF790FF054B00229A60044B07221A6073
:100E9C00002318460837BD4680BD00BF10E000E0B7
:100EAC0080B582B000AF78607868FFF749FF00BF6B
:100EBC000837BD4680BD80B586B000AF0346B9602B
:100ECC007A60FB7300237B61FFF75EFF78617A68C1
:100EDC00B9687869FFF790FF024697F90F30114611
:100EEC001846FFF75FFF00BF1837BD4680BD80B5C1
:100EFC0082B000AF78607868FFF7B0FF0346184601
:100F0C000837BD4680BD000080B48BB000AF786060
:100F1C00396000237B6200233B6248E101227B6A3B
:100F2C0002FA03F3FB613B681B68FA691340BB616F
:100F3C00BA69FB699A4240F037813B685B68A34A07
:100F4C0093425ED0A14A934275D8A14A934258D09D
:100F5C009F4A93426FD89F4A934252D09D4A9342E4
:100F6C0069D89D4A93424CD09B4A934263D89B4A82
:100F7C00934246D0994A93425DD8122B2AD8122B11
:100F8C0059D801A252F823F00F100008E90F0008FD
:100F9C00FB0F00083D100008431000084310000828
:100FAC0043100008431000084310000843100008C9
:100FBC0043100008431000084310000843100008B9
:100FCC00431000084310000843100008F10F0008FC
:100FDC0005100008824A934213D02CE03B68DB6872
:100FEC003B6229E03B68DB6804333B6224E03B68EE
:100FFC00DB6808333B621FE03B68DB680C333B6209
:10100C001AE03B689B68002B02D104233B6213E07F
:10101C003B689B68012B05D108233B627B68FA690E
:10102C001A6109E008233B627B68FA695A6103E0A4
:10103C0000233B6200E000BFBB69FF2B01D87B683B
:10104C0001E07B6804337B61BB69FF2B02D87B6AB0
:10105C009B0002E07B6A083B9B003B617B691A6842
:10106C000F213B6901FA03F3DB431A40396A3B69F0
:10107C0001FA03F31A437B691A603B685B6803F05F
:10108C008053002B00F09080564B9B69554A43F0DF
:10109C0001039361534B9B6903F00103BB60BB6875
:1010AC00514A7B6A9B08023352F82330FB607B6AFF
:1010BC0003F003039B000F2202FA03F3DB43FA68ED
:1010CC001340FB607B68494A93420DD07B68484AC9
:1010DC00934207D07B68474A934201D1022304E034
:1010EC00032302E0012300E000237A6A02F00302EA
:1010FC0092009340FA681343FB603B497B6A9B0860
:10110C000233FA6841F823203B685B6803F48013D0
:10111C00002B06D0384B9A683749BB6913438B6058
:10112C0006E0354B9A68BB69DB43334913408B604F
:10113C003B685B6803F40013002B06D02E4BDA6877
:10114C002D49BB691343CB6006E02B4BDA68BB69B6
:10115C00DB4329491340CB603B685B6803F40033E5
:10116C00002B06D0244B5A682349BB6913434B60B0
:10117C0006E0214B5A68BB69DB431F4913404B60A7
:10118C003B685B6803F48033002B06D01A4B1A685B
:10119C001949BB6913430B6006E0174B1A68BB690E
:1011AC00DB43154913400B607B6A01337B623B6860
:1011BC001A687B6A22FA03F3002B7FF4AFAE00BFF0
:1011CC0000BF2C37BD4680BC704700BF00003210FA
:1011DC00000031100000221000002110000012103D
:1011EC0000001110001002400000014000080140F6
:1011FC00000C0140001001400004014080B483B099
:10120C0000AF78600B467B8013467B707B78002B9D
:10121C0003D07A887B681A6103E07B881A047B68A8
:10122C001A6100BF0C37BD4680BC704780B586B0D4
:10123C0000AF78607B68002B01D101236CE27B68E6
:10124C001B6803F00103002B00F08780924B5B6856
:10125C0003F00C03042B0CD08F4B5B6803F00C03D6
:10126C00082B12D18C4B5B6803F48033B3F5803FB1
:10127C000BD1894B1B6803F40033002B6CD07B68BB
:10128C005B68002B68D1012346E27B685B68B3F591
:10129C00803F06D1804B1B687F4A43F48033136038
:1012AC002EE07B685B68002B0CD17B4B1B687A4A69
:1012BC0023F480331360784B1B68774A23F4802324
:1012CC0013601DE07B685B68B3F5A02F0CD1724BEB
:1012DC001B68714A43F4802313606F4B1B686E4A82
:1012EC0043F4803313600BE06B4B1B686A4A23F4A6
:1012FC0080331360684B1B68674A23F480231360A8
:10130C007B685B68002B13D0FFF710FD386108E099
:10131C00FFF70CFD02463B69D31A642B01D903235A
:10132C00FAE15D4B1B6803F40033002BF0D014E0A2
:10133C00FFF7FCFC386108E0FFF7F8FC02463B695C
:10134C00D31A642B01D90323E6E1534B1B6803F436
:10135C000033002BF0D100E000BF7B681B6803F06A
:10136C000203002B63D04C4B5B6803F00C03002B87
:10137C000BD0494B5B6803F00C03082B1CD1464B7C
:10138C005B6803F48033002B16D1434B1B6803F0CE
:10139C000203002B05D07B681B69012B01D00123B4
:1013AC00BAE13D4B1B6823F0F8027B685B69DB00FC
:1013BC00394913430B603AE07B681B69002B20D042
:1013CC00364B01221A60FFF7B1FC386108E0FFF7D9
:1013DC00ADFC02463B69D31A022B01D903239BE1D6
:1013EC002D4B1B6803F00203002BF0D02A4B1B681B
:1013FC0023F0F8027B685B69DB00274913430B6021
:10140C0015E0264B00221A60FFF790FC386108E0CB
:10141C00FFF78CFC02463B69D31A022B01D903233C
:10142C007AE11D4B1B6803F00203002BF0D17B68A3
:10143C001B6803F00803002B3AD07B689B69002BD8
:10144C0019D0174B01221A60FFF770FC386108E0C5
:10145C00FFF76CFC02463B69D31A022B01D903231C
:10146C005AE10D4B5B6A03F00203002BF0D0012014
:10147C0000F09AFA1CE00A4B00221A60FFF756FCA7
:10148C0038610FE0FFF752FC02463B69D31A022B7E
:10149C0008D9032340E100BF001002400000424283
:1014AC00800442429E4B5B6A03F00203002BE9D19D
:1014BC007B681B6803F00403002B00F0A68000235C
:1014CC00FB75974BDB6903F08053002B0DD1944BCC
:1014DC00DB69934A43F08053D361914BDB6903F092
:1014EC008053BB60BB680123FB758E4B1B6803F4F8
:1014FC008073002B18D18B4B1B688A4A43F4807382
:10150C001360FFF713FC386108E0FFF70FFC02468D
:10151C003B69D31A642B01D90323FDE0814B1B6873
:10152C0003F48073002BF0D07B68DB68012B06D1B1
:10153C007B4B1B6A7A4A43F0010313622DE07B68F4
:10154C00DB68002B0CD1764B1B6A754A23F0010328
:10155C001362734B1B6A724A23F0040313621CE080
:10156C007B68DB68052B0CD16D4B1B6A6C4A43F016
:10157C00040313626A4B1B6A694A43F0010313624A
:10158C000BE0674B1B6A664A23F001031362644B42
:10159C001B6A634A23F0040313627B68DB68002B2D
:1015AC0015D0FFF7C3FB38610AE0FFF7BFFB02461B
:1015BC003B69D31A41F28832934201D90323ABE041
:1015CC00574B1B6A03F00203002BEED014E0FFF71D
:1015DC00ADFB38610AE0FFF7A9FB02463B69D31A61
:1015EC0041F28832934201D9032395E04C4B1B6A9C
:1015FC0003F00203002BEED1FB7D012B05D1484BF0
:10160C00DB69474A23F08053D3617B68DB69002B8D
:10161C0000F08180424B5B6803F00C03082B61D017
:10162C007B68DB69022B46D13F4B00221A60FFF727
:10163C007DFB386108E0FFF779FB02463B69D31A62
:10164C00022B01D9032367E0354B1B6803F00073B1
:10165C00002BF0D17B681B6AB3F5803F08D1304B6F
:10166C005B6823F400327B689B682D4913434B6005
:10167C002B4B5B6823F474127B68196A7B685B6A7A
:10168C000B43274913434B60274B01221A60FFF78A
:10169C004DFB386108E0FFF749FB02463B69D31A62
:1016AC00022B01D9032337E01D4B1B6803F0007399
:1016BC00002BF0D02FE01C4B00221A60FFF736FBFA
:1016CC00386108E0FFF732FB02463B69D31A022B64
:1016DC0001D9032320E0124B1B6803F00073002B8D
:1016EC00F0D118E07B68DB69012B01D1012313E0F9
:1016FC000B4B5B68FB60FB6803F480327B681B6AF6
:10170C009A4206D1FB6803F470127B685B6A9A42BA
:10171C0001D0012300E0002318461837BD4680BDD8
:10172C0000100240007000406000424280B584B05E
:10173C0000AF786039607B68002B01D10123D0E0C9
:10174C006A4B1B6803F007033A689A4210D9674B3F
:10175C001B6823F0070265493B6813430B60634B1E
:10176C001B6803F007033A689A4201D00123B8E0E2
:10177C007B681B6803F00203002B20D07B681B687E
:10178C0003F00403002B05D0594B5B68584A43F413
:10179C00E06353607B681B6803F00803002B05D0E3
:1017AC00534B5B68524A43F460535360504B5B6835
:1017BC0023F0F0027B689B684D4913434B607B68B8
:1017CC001B6803F00103002B40D07B685B68012B86
:1017DC0007D1474B1B6803F40033002B15D10123B1
:1017EC007FE07B685B68022B07D1414B1B6803F0E1
:1017FC000073002B09D1012373E03D4B1B6803F0F0
:10180C000203002B01D101236BE0394B5B6823F001
:10181C0003027B685B68364913434B60FFF786FA1B
:10182C00F8600AE0FFF782FA0246FB68D31A41F22D
:10183C008832934201D9032353E02D4B5B6803F0AC
:10184C000C027B685B689B009A42EBD1274B1B68B0
:10185C0003F007033A689A4210D2244B1B6823F01A
:10186C00070222493B6813430B60204B1B6803F0B3
:10187C0007033A689A4201D0012332E07B681B6867
:10188C0003F00403002B08D0194B5B6823F4E062CF
:10189C007B68DB68164913434B607B681B6803F05D
:1018AC000803002B09D0124B5B6823F460527B6851
:1018BC001B69DB000E4913434B6000F021F8024614
:1018CC000B4B5B681B0903F00F030A49CB5C22FA34
:1018DC0003F3094A1360094B1B681846FFF7E4F938
:1018EC00002318461037BD4680BD00BF00200240C3
:1018FC0000100240601A00080000002004000020C4
:10190C0080B487B000AF0023FB600023BB600023D2
:10191C007B6100237B6000233B611E4B5B68FB609B
:10192C00FB6803F00C03042B02D0082B03D027E038
:10193C00194B3B6127E0FB689B0C03F00F03174A24
:10194C00D35C7B60FB6803F48033002B10D0114B0D
:10195C005B685B0C03F00103114AD35CBB607B68D2
:10196C000D4A02FB03F2BB68B2FBF3F37B6104E0AC
:10197C007B680C4A02FB03F37B617B693B6102E0F1
:10198C00054B3B6100BF3B6918461C37BD4680BC0C
:10199C00704700BF0010024000127A00701A000855
:1019AC00801A000800093D0080B485B000AF786053
:1019BC000A4B1B680A4AA2FB03235B0A7A6802FBE8
:1019CC0003F3FB6000BFFB685A1EFA60002BF9D1D1
:1019DC0000BF00BF1437BD4680BC7047000000201C
:1019EC00D34D621070B500260C4D0D4C641BA41029
:1019FC00A64209D100F022F800260A4D0A4C641BBD
:101A0C00A410A64205D170BD55F8043B9847013689
:101A1C00EEE755F8043B98470136F2E7841A0008C4
:101A2C00841A0008841A0008881A00080346024425
:101A3C00934200D1704703F8011BF9E7F8B500BFDA
:101A4C00F8BC08BC9E467047F8B500BFF8BC08BC93
:041A5C009E467047EB
:101A6000000000000000000001020304060708094E
:101A700002030405060708090A0B0C0D0E0F1010CF
:041A8000010200005F
:041A84003101000824
:041A88000D01000844
:0C1A8C0000127A001000000001000000B1
:0400000508000C3DA6
:00000001FF
